:100000000C9436000C9453000C9453000C94530041
:100010000C9453000C9453000C9453000C94530014
:100020000C9453000C9453000C9453000C94530004
:100030000C9453000C9469010C9453000C945300DD
:100040000C9453000C9453000C9453000C945300E4
:100050000C9453000D0A000D0A000D0A000D0A0051
:100060000D0A007766696E69740D0A0011241FBEBF
:10007000CFE5D8E0DEBFCDBF11E0A0E6B0E0E8E21A
:10008000FCE102C005900D92A63FB107D9F713E03D
:10009000A6EFB1E001C01D92AB3FB107E1F70E94AE
:1000A00037060C94120E0C9400009C0140E050E0C6
:1000B000CA01B90160587B47814E9F4FF3E0660F3C
:1000C000771F881F991FFA95D1F7E4E0220F331F9D
:1000D000441F551FEA95D1F70E940B0A215030406A
:1000E0008FEF80930F0280910F028093FA0130BD51
:1000F00029B986E880BD88E98AB978940895EF9295
:10010000FF920F931F93262F7C0100E010E030E058
:1001100040E050E0CA01B90128E438EE41E050E087
:100120000E94D9096E0D7F1D801F911FB3E0660FDD
:10013000771F881F991FBA95D1F7A4E0EE0CFF1C1A
:10014000001F111FAA95D1F7A80197010E942D0A3F
:10015000215030408FEF80930F0280910F028093E7
:10016000FA0130BD29B986E880BD88E98AB978945A
:100170001F910F91FF90EF9008958091FA018F3FAA
:1001800011F4E0E01DC0E091FA01FF27E7FDF095D2
:10019000E05FFD4FE0819091FA0180910F02981786
:1001A00041F48FEF80930F0280910F028093FA0148
:1001B00007C08091FA018F5F8093FA018091FA0164
:1001C0008E2F08955D9BFECF8CB90895FC0104C06D
:1001D0005D9BFECF8CB9319680818823C9F7089545
:1001E00003C05D9BFECF2CB9FC0101962491222314
:1001F000C1F70895EF92FF920F931F93CF93DF9370
:100200007C018B01C0E0D0E007C00E94BD00F70177
:10021000EC0FFD1F80832196C017D107B0F3DF914B
:10022000CF911F910F91FF90EF9008958091FA0167
:100230008F3F11F490E01AC09091FA0180910F0263
:10024000981734F490910F028091FA019F5F0DC0CE
:100250009091FA0180910F02891714F091E006C085
:1002600090910F028091FA01935D981B892F089558
:1002700002C00E94BD000E9416018823D1F7089594
:100280001F93CF93DF93EC01162F0E941601811765
:10029000E0F3CE01612F70E00E94FA0081E0DF916F
:1002A000CF911F9108951F93CF93DF93EC01162FE9
:1002B0000E941601811738F0CE01612F70E00E9474
:1002C000FA0081E002C0188280E0DF91CF911F9197
:1002D00008951F920F920FB60F9211242F933F9300
:1002E0004F938F939F93EF93FF934CB180910F02A5
:1002F00080910F022091FA01992787FD9095019630
:10030000332727FD30958217930739F48091FA013E
:100310008F5F8093FA018091FA0180910F028091A2
:100320000F028F5F80930F02E0910F02FF27E7FD1E
:10033000F095E05FFD4F40838091FA018F3F11F40B
:100340001092FA01FF91EF919F918F914F913F9100
:100350002F910F900FBE0F901F90189580E090E0A6
:10036000FC01E05FFD4F1082019680389105C1F7D6
:100370000895662311F0DC9A01C0DC98DD98A49AF8
:10038000A59AA69AA79AAF98AE98AD98AC9887FD13
:10039000AF9A86FDAE9A85FDAD9A84FDAC9ADE9A41
:1003A00000C0DE98AF98AE98AD98AC9883FDAF9A38
:1003B00082FDAE9A81FDAD9A80FDAC9ADE9A00C0B6
:1003C000DE98AC9AAD9AAE9AAF9A089580E097E223
:1003D0000197F1F784E090E00197F1F7DC98DD9A5E
:1003E000A498A598A698A798DE9A00C09C9B02C0E6
:1003F00080E101C080E09D9980629E9980649F9910
:100400008068DE9800C0DE9A00C09C9981609D994A
:1004100082609E9984609F998860DE9808951F93FA
:10042000182F0E94E601812F60E00E94B9011F9100
:1004300008951F93182F0E94E601812F61E00E940A
:10044000B9011F910895662311F4805801C08054AA
:100450000E940F0208950E94E60190E0089581E055
:100460000E940F02089582E00E940F0208951F93D8
:10047000182F0E94E6011A3049F4803410F080E011
:1004800001C080E480580E940F0204C0812F61E007
:100490000E94B9011F910895CF93DF93EC0102C030
:1004A0000E94370289918823D9F7DF91CF9108956F
:1004B000CF93DF93EC0102C00E943702FE01219628
:1004C00084918823C9F7DF91CF910895CF93DF936B
:1004D000EC0102C00E943702FE012196849188231C
:1004E000C9F7DF91CF910895D49AD59AD69AA49A54
:1004F000A59AA69AA79A80E09DE70197F1F7AD9A91
:10050000AC9ADE9A00C0DE9880E097E20197F1F79E
:10051000DE9A00C0DE9880E890E0FC013197F1F7A8
:10052000DE9A00C0DE98FC013197F1F7AC98DE9AB4
:1005300000C0DE980197F1F788E20E940F0288E080
:100540000E940F020E942F0286E00E940F028CE0A0
:100550000E940F0208950F931F93DF93CF93CDB79F
:10056000DEB727970FB6F894DEBF0FBECDBF8E0162
:100570000F5F1F4FA8012AE030E00E94EE0AC80179
:100580000E944C0227960FB6F894DEBF0FBECDBF77
:10059000CF91DF911F910F9108950F931F93DF93D8
:1005A000CF93CDB7DEB727970FB6F894DEBF0FBE57
:1005B000CDBF8E010F5F1F4FA8012AE030E00E94DF
:1005C000EE0AC8010E94E60027960FB6F894DEBF37
:1005D0000FBECDBFCF91DF911F910F9108950F9363
:1005E0001F93DF93CF93CDB7DEB7C456D0400FB67D
:1005F000F894DEBF0FBECDBF2DB73EB72A503040B6
:100600000FB6F8943EBF0FBE2DBFEDB7FEB73196C3
:100610008E010B5E1F4FADB7BEB712961C930E93A3
:10062000119720E630E0338322832CE830E03583D5
:10063000248397838683718760870E942A0B2DB756
:100640003EB7265F3F4F0FB6F8943EBF0FBE2DBF9B
:10065000C8018E010F5F1F4FB8010E944009C801F9
:1006600063E970E00E94C8089C01009711F021E046
:1006700030E0C901CC59DF4F0FB6F894DEBF0FBE92
:10068000CDBFCF91DF911F910F9108950F931F93CD
:10069000DF93CF93CDB7DEB7C456D0400FB6F894F2
:1006A000DEBF0FBECDBF2DB73EB72A5030400FB6CC
:1006B000F8943EBF0FBE2DBFEDB7FEB731968E0149
:1006C0000B5E1F4FADB7BEB712961C930E931197DA
:1006D0002DE930E0338322832CE830E03583248316
:1006E00097838683718760870E942A0B2DB73EB758
:1006F000265F3F4F0FB6F8943EBF0FBE2DBFC80117
:100700008E010F5F1F4FB8010E944009C80163E9C5
:1007100070E00E94C8089C01009711F021E030E0D1
:10072000C901CC59DF4F0FB6F894DEBF0FBECDBF65
:10073000CF91DF911F910F9108950F931F93DF9336
:10074000CF93CDB7DEB7C456D0400FB6F894DEBF16
:100750000FBECDBF2DB73EB72C5030400FB6F8942A
:100760003EBF0FBE2DBFEDB7FEB731968E010B5EBB
:100770001F4FADB7BEB712961C930E93119729EC7D
:1007800030E0338322832CE830E035832483978361
:10079000868371876087538742870E942A0B2DB713
:1007A0003EB7245F3F4F0FB6F8943EBF0FBE2DBF3C
:1007B000C8018E010F5F1F4FB8010E944009C80198
:1007C00063E970E00E94C8089C01009711F021E0E5
:1007D00030E0C901CC59DF4F0FB6F894DEBF0FBE31
:1007E000CDBFCF91DF911F910F9108958F929F926E
:1007F000AF92BF92CF92DF92EF92FF920F931F932F
:10080000DF93CF93CDB7DEB7CE56D0400FB6F89476
:10081000DEBF0FBECDBF6C015B014A0100D000D02E
:1008200000D0EDB7FEB731968E01015E1F4FADB718
:10083000BEB712961C930E93119782E091E09383BA
:1008400082838CE890E0958384830E942A0BEDB725
:10085000FEB736960FB6F894FEBF0FBEEDBF8BE025
:10086000E82EF12CEC0EFD1EC801B7010E944009D4
:10087000C70160E371E08E010F5F1F4FA8010E9466
:100880009508C8010E945C0AD6018D939C93C7010C
:1008900062E371E0A8010E949508C8010E945C0A09
:1008A000F50191838083C70164E371E0A8010E9490
:1008B0009508C8010E945C0AD4018D939C9381E045
:1008C00090E0C259DF4F0FB6F894DEBF0FBECDBF28
:1008D000CF91DF911F910F91FF90EF90DF90CF901C
:1008E000BF90AF909F908F900895CF92DF92EF923C
:1008F000FF920F931F93DF93CF93CDB7DEB7CE5602
:10090000D0400FB6F894DEBF0FBECDBF6C018DB7DF
:100910009EB708970FB6F8949EBF0FBE8DBFEDB778
:10092000FEB731969FE1E92EF12CEC0EFD1EADB71E
:10093000BEB71296FC92EE92119786E391E09383F4
:1009400082838CE890E095838483D782C6820E945C
:100950002A0B8DB79EB708960FB6F8949EBF0FBEB0
:100960008DBF8E01055F1F4FC701B8010E9440096E
:10097000C801B6018E010F5F1F4FA8010E949508A4
:10098000C8010E945C0AC259DF4F0FB6F894DEBF5F
:100990000FBECDBFCF91DF911F910F91FF90EF90D0
:1009A000DF90CF900895AF92BF92CF92DF92EF92F7
:1009B000FF920F931F93DF93CF93CDB7DEB7CE5641
:1009C000D0400FB6F894DEBF0FBECDBF6C015B0107
:1009D0008DB79EB708970FB6F8949EBF0FBE8DBF18
:1009E000EDB7FEB731962FE1E22EF12CEC0EFD1E95
:1009F000ADB7BEB71296FC92EE92119786E391E0E6
:100A0000938382838CE890E095838483D782C68227
:100A10000E942A0B8DB79EB708960FB6F8949EBF1A
:100A20000FBE8DBF8E01055F1F4FC701B8010E9429
:100A30004009C801B6018E010F5F1F4FA8010E9437
:100A40009508C501B8010E94850AC259DF4F0FB64B
:100A5000F894DEBF0FBECDBFCF91DF911F910F91F4
:100A6000FF90EF90DF90CF90BF90AF9008950F93DD
:100A70001F93DF93CF93CDB7DEB727970FB6F894C8
:100A8000DEBF0FBECDBF8E010F5F1F4FB8014AE022
:100A900050E00E94CD0AC8010E94E60027960FB6DA
:100AA000F894DEBF0FBECDBFCF91DF911F910F91A4
:100AB000089584E090E066E070E040E050E00E943D
:100AC0002E07089584E090E066E070E041E050E099
:100AD0000E942E07089584E090E065E070E040E019
:100AE00050E00E942E0788E99AE320E931E0F901FD
:100AF0003197F1F70197D9F784E090E065E070E075
:100B000041E050E00E942E07089584E090E064E008
:100B100070E040E050E00E942E0788E99AE320E967
:100B200031E0F9013197F1F70197D9F784E090E0CE
:100B300064E070E041E050E00E942E07089584E0F8
:100B400090E065E070E040E050E00E942E0784EF06
:100B500091E020E931E0F9013197F1F70197D9F7F8
:100B600084E090E065E070E041E050E00E942E07F4
:100B7000089584E090E066E070E041E050E00E947B
:100B80002E0784E090E064E070E040E050E00E94D6
:100B90002E0784EF91E020E931E0F9013197F1F778
:100BA0000197D9F784E090E064E070E041E050E024
:100BB0000E942E07089582E090E060E070E041E03E
:100BC00050E00E942E0782E090E061E070E041E09A
:100BD00050E00E942E0782E090E064E070E041E087
:100BE00050E00E942E0782E090E065E070E041E076
:100BF00050E00E942E07089582E090E060E070E0EF
:100C000040E050E00E942E0782E090E061E070E05A
:100C100040E050E00E942E0782E090E064E070E047
:100C200040E050E00E942E0782E090E065E070E036
:100C300040E050E00E942E0708950E94740281E671
:100C400091E00E944C0280E197E220E931E0F90155
:100C50003197F1F70197D9F780E895E20E945500A6
:100C600082E090E00E946B080E94C009089584E031
:100C700090E066E070E041E050E00E942E070E94A4
:100C80001D0683E791E068E771E00E94840981E82E
:100C900091E00E944C0280E197E220E931E0F90105
:100CA0003197F1F70197D9F78BE891E06BEF71E09D
:100CB0000E94D3040E942F028BEF91E00E944C020D
:100CC0000E942F028BEF91E06EE871E00E94C8084D
:100CD000892B81F084E090E066E070E041E050E034
:100CE0000E942E070E94B9058BE891E061E070E058
:100CF0000E94EF028BEF91E068E971E00E94C80862
:100D0000892B19F00E94B90531C08BEF91E062EA9E
:100D100071E00E94C808892B19F00E949F0526C027
:100D20008BEF91E06CEA71E00E94C808892B19F002
:100D30000E9485051BC08BEF91E067EB71E00E947C
:100D4000C808892B49F084E090E066E070E040E05C
:100D500050E00E942E070AC08BEF91E061EC71E039
:100D60000E94C808892B49F00E946B058BE891E02E
:100D700061E070E00E94EF0297CF8CEC91E00E945E
:100D80004C0292CF8230F9F0833018F4813031F484
:100D900007C0833059F1843009F442C080E00895DF
:100DA000693019F41ABA89B308958AB321E030E0A2
:100DB000062E02C0220F331F0A94E2F72095282343
:100DC0002ABB89B325C0693019F417BA86B30895D0
:100DD00087B321E030E0062E02C0220F331F0A94B1
:100DE000E2F72095282327BB86B312C0693019F497
:100DF00014BA83B3089584B321E030E0062E02C014
:100E0000220F331F0A94E2F72095282324BB83B3D3
:100E100090E002C0959587956A95E2F781700895F4
:100E2000693019F411BA80B3089531B381E090E0CC
:100E3000062E02C0880F991F0A94E2F7282F2095EA
:100E4000232321BB22B3822B82BB80B390E002C05C
:100E5000959587956A95E2F781700895823009F437
:100E600041C0833020F4813009F0D7C007C08330FF
:100E700009F46CC0843009F0D0C09CC06B3521F4FB
:100E80008FEF8ABB4BBB0895442321F0413009F01A
:100E9000C4C014C0693021F48FEF8ABB1BBA089517
:100EA0008AB321E030E002C0220F331F6A95E2F7D7
:100EB000822B8ABB8BB32095282312C0693021F482
:100EC0008FEF8ABB8BBB08958AB321E030E002C06C
:100ED000220F331F6A95E2F7822B8ABB8BB3282B34
:100EE0002BBB08956B3521F48FEF87BB48BB08956A
:100EF000442321F0413009F090C014C0693021F43E
:100F00008FEF87BB18BA089587B321E030E002C0A5
:100F1000220F331F6A95E2F7822B87BB88B3209597
:100F2000282312C0693021F48FEF87BB88BB089556
:100F300087B321E030E002C0220F331F6A95E2F749
:100F4000822B87BB88B3282B28BB08956B3521F4EF
:100F50008FEF84BB45BB0895442321F0413009F055
:100F60005CC014C0693021F48FEF84BB15BA0895BA
:100F700084B321E030E002C0220F331F6A95E2F70C
:100F8000822B84BB85B32095282312C0693021F4BD
:100F90008FEF84BB85BB089584B321E030E002C0AD
:100FA000220F331F6A95E2F7822B84BB85B3282B6F
:100FB00025BB08956B3521F48FEF81BB42BB0895AB
:100FC000442319F0413049F515C0693021F48FEF01
:100FD00081BB12BA089581B321E030E002C0220F34
:100FE000331F6A95E2F7822B81BB82B320952823B9
:100FF00022BB0895693021F48FEF81BB82BB089535
:1010000081B321E030E002C0220F331F6A95E2F77E
:10101000822B81BB82B3282B22BB0895833019F128
:10102000843009F43CC0823009F054C0442321F0DC
:10103000413009F04FC00CC027B381E090E002C0FE
:10104000880F991F6A95E2F78095822387BB0895E0
:1010500027B381E090E002C0880F991F6A95E2F7FC
:10106000282B27BB0895442319F0413099F50CC073
:1010700024B381E090E002C0880F991F6A95E2F7DF
:101080008095822384BB089524B381E090E002C060
:10109000880F991F6A95E2F7282B24BB08954423F3
:1010A00019F04130B9F40CC021B381E090E002C0E6
:1010B000880F991F6A95E2F78095822381BB089576
:1010C00021B381E090E002C0880F991F6A95E2F792
:1010D000282B21BB0895882321F481E067E040E0BC
:1010E00004C0813041F467E041E00E942E0783E0B4
:1010F00062E040E00AC0823059F481E067E040E0FD
:101100000E942E0783E062E041E00E942E070895CE
:10111000833051F481E067E041E00E942E0783E0D4
:1011200062E041E00E942E070895EF92FF920F9334
:101130001F93CF93DF93EA010E94B30A009719F43B
:1011400020E030E01DC0019663EE71E00E94B30A1A
:101150007C0183E090E0E80EF91EC70162E270E0D6
:101160000E947A0A8C010E191F09CE01B701A8014D
:101170000E94A40A0C0F1D1FF801108221E030E02C
:10118000C901DF91CF911F910F91FF90EF900895CA
:10119000DB010D900020E9F71197A61BB70B4A2F32
:1011A00050E00E948C0A20E030E0892B11F421E00D
:1011B00030E0C90108950E945C0A0895D29ADA9835
:1011C000089581E090E00895D29ADA9888E893E152
:1011D00020E931E0F9013197F1F70197D9F7DA9A6F
:1011E00080E49CE920E931E0F9013197F1F70197BA
:1011F000D9F70895AF92BF92CF92DF92FF920F93EB
:101200001F93CF93DF936C01FF24C0E0D0E080EA0E
:10121000A82E8FE0B82E04C02196C5010197F1F7E2
:101220000E941601892B19F4CC15DD05A8F3CC1505
:10123000DD05C9F00F2D10E00E94BD00F801E75A4E
:10124000FC4F80838A3069F482E08F1550F40E944D
:101250003801980121503040F901E75AFC4F1082C3
:1012600004C0F394DDCF20E030E0C901DF91CF91DD
:101270001F910F91FF90DF90CF90BF90AF90089596
:10128000EF92FF920F931F938C017B010E94380114
:1012900086EE91E00E94E60087E590E00E94F00073
:1012A00082E390E00E94FA080E94380110925903EC
:1012B000C8010E94E60084E590E00E94F00088EEFC
:1012C00093E00E94FA08C70169E573E00E94850A6D
:1012D0000E9438018091F8019091F9010196909354
:1012E000F9018093F80162E370E00E94F809892B0C
:1012F00021F48BEE91E00E94E60088EC90E01F91D3
:101300000F91FF90EF900895EF92FF920F931F932C
:101310008C017B0181E493E0B8010E94850A8DE491
:1013200093E0B7010E94850A0E94380181EF91E0A5
:101330000E94E60080E690E00E94F00082E390E0E8
:101340000E94FA08C8010E94E6008DE590E00E9424
:10135000F00082E390E00E94FA08C7010E94E600D4
:101360008AE590E00E94F00082E390E00E94FA0893
:1013700020E030E0C9011F910F91FF90EF90089598
:101380000E94E40883E690E00E94F00084EF91E080
:1013900020E931E0F9013197F1F70197D9F788ECAD
:1013A00090E00E94FA080E94380108950E94C00946
:1013B0000895629FD001739FF001829FE00DF11D9F
:1013C000649FE00DF11D929FF00D839FF00D749FBF
:1013D000F00D659FF00D9927729FB00DE11DF91F6B
:1013E000639FB00DE11DF91FBD01CF0111240895C8
:1013F00097FB092E07260AD077FD04D049D006D0E6
:1014000000201AF4709561957F4F0895F6F7909536
:1014100081959F4F0895A1E21A2EAA1BBB1BFD01C7
:101420000DC0AA1FBB1FEE1FFF1FA217B307E407C3
:10143000F50720F0A21BB30BE40BF50B661F771F1B
:10144000881F991F1A9469F76095709580959095FB
:101450009B01AC01BD01CF01089597FB092E052624
:101460000ED057FD04D0D7DF0AD0001C38F45095B9
:101470004095309521953F4F4F4F5F4F0895F6F7B8
:1014800090958095709561957F4F8F4F9F4F0895F0
:10149000AA1BBB1B51E107C0AA1FBB1FA617B7079A
:1014A00010F0A61BB70B881F991F5A95A9F78095B6
:1014B0009095BC01CD010895FC0188279927E894F7
:1014C00021912032E9F3293010F02E30C8F32B326D
:1014D00041F02D3239F4689404C00E94220B820F2F
:1014E000911D219120532A30C0F31EF490958195CF
:1014F0009F4F0895FC018191861721F08823D9F729
:10150000992708953197CF010895FB01DC010190DF
:101510000D920020E1F70895FB01DC01415050409D
:1015200088F08D9181341CF08B350CF4805E6191D4
:1015300061341CF06B350CF4605E861B611171F335
:10154000990B0895881BFCCFFB01DC0141505040F2
:1015500048F001900D920020C9F701C01D92415042
:101560005040E0F70895FB0151915523A9F0BF01C8
:10157000DC014D9145174111E1F759F4CD0101907E
:10158000002049F04D9140154111C9F3FB01411173
:10159000EFCF81E090E001970895FB019F01E8946F
:1015A0004230C4F04532B4F44A3029F497FB1EF4BB
:1015B000909581959F4F642F77270E94480A805D00
:1015C0008A330CF0895D8193CB010097A1F716F463
:1015D0005DE251931082C9010C94410DFA01CF9341
:1015E000FF93EF93223044F1253234F5C22FE89473
:1015F000CA3049F497FB3EF49095809570956195BB
:101600007F4F8F4F9F4F2C2F332744275527FF9312
:10161000EF930E940B0AEF91FF91605D6A330CF02B
:10162000695D6193B901CA0160507040804090408B
:1016300051F716F4CDE2C19310828F919F91CF9113
:101640000C94410D7AE0979F902D879F802D910DEE
:1016500011240895AEE0B0E0E0E3FBE00C94E90D66
:101660000D891E8986E08C831A8309838FEF9FE79B
:101670009E838D839E01275E3F4FCE0101966F8929
:10168000788DA9010E944E0B2F813885020F131F00
:10169000F80110822E96E4E00C94050EABE0B0E069
:1016A000E4E5FBE00C94DB0D3C012B015A01FC014D
:1016B00017821682838181FD03C06FEF7FEFC6C161
:1016C0009AE0892E1E010894211C311CF30123810C
:1016D000F20123FD859123FF81912F01882309F4D5
:1016E000B2C1853239F423FD859123FF81912F0109
:1016F000853229F490E0B3010E94510DE7CF982F75
:10170000FF24EE249924FFE1FF15D0F09B3269F00D
:101710009C3228F4903259F0933291F40EC09D32ED
:1017200049F0903369F441E024C052E0F52A84E0A6
:10173000F82A28C098E0F92A25C0E0E1FE2A22C054
:10174000F7FC29C0892F80538A3070F4F6FE05C05B
:10175000989C902C1124980E15C0E89CE02C112424
:10176000E80EF0E2FF2A0EC09E3229F4F6FC6BC1AF
:1017700040E4F42A07C09C3619F450E8F52A02C068
:10178000983649F4F20123FD959123FF91912F01A1
:10179000992309F0B8CF892F8554833018F08052EF
:1017A000833038F444E050E0A40EB51E5FE3598363
:1017B0000FC0933631F0933779F0933509F056C066
:1017C00020C0F5018081898342E050E0A40EB51E5F
:1017D000610101E010E012C0F501C080D180F6FC8B
:1017E00003C06FEF7FEF02C0692D70E042E050E070
:1017F000A40EB51EC6010E94360D8C015FE7F522CE
:1018000014C0F501C080D180F6FC03C06FEF7FEFFC
:1018100002C0692D70E042E050E0A40EB51EC60182
:101820000E942B0D8C0150E8F52AF3FE07C01AC068
:1018300080E290E0B3010E94510DEA948E2D90E079
:1018400008171907A8F30EC0F601F7FC8591F7FEFB
:1018500081916F0190E0B3010E94510DE110EA9473
:10186000015010400115110579F7EAC0943611F0C6
:10187000993669F5F7FE08C0F50120813181428172
:10188000538184E090E00AC0F501808191819C0140
:10189000442737FD4095542F82E090E0A80EB91EF2
:1018A0009FE6F92257FF09C0509540953095219544
:1018B0003F4F4F4F5F4FE0E8FE2ACA01B901A10137
:1018C0002AE030E00E947D0DD82ED21840C0953716
:1018D00029F41F2D1F7E2AE030E01DC01F2D197F27
:1018E0009F3661F0903720F4983509F0ACC00FC0F6
:1018F000903739F0983709F0A6C004C028E030E0EE
:101900000AC0106114FD146020E130E004C014FD31
:10191000166020E132E017FF08C0F5016081718197
:101920008281938144E050E008C0F501808191817B
:10193000BC0180E090E042E050E0A40EB51EA101A1
:101940000E947D0DD82ED2188FE7F82EF122F6FED8
:101950000BC05EEFF522D91438F4F4FE07C0F2FC98
:1019600005C08FEEF82202C01D2D01C0192DF4FE16
:101970000DC0FE01ED0DF11D8081803319F499EE4B
:10198000F92208C01F5FF2FE05C003C08F2D8678C4
:1019900009F01F5F0F2DF3FC14C0F0FE0FC01E15E1
:1019A00010F09D2C0BC09D2C9E0C911A1E2D06C074
:1019B00080E290E0B3010E94510D1F5F1E15C0F33D
:1019C00004C01E1510F4E11A01C0EE2404FF0FC07C
:1019D00080E390E0B3010E94510D02FF1DC001FDA4
:1019E00003C088E790E00EC088E590E00BC0802F30
:1019F000867891F001FF02C08BE201C080E2F7FC23
:101A00008DE290E0B3010E94510D06C080E390E0AA
:101A1000B3010E94510D9A94D914C0F3DA94F101E4
:101A2000ED0DF11D808190E0B3010E94510DDD208C
:101A3000A9F706C080E290E0B3010E94510DEA943C
:101A4000EE20C1F743CEF30166817781CB012B965F
:101A5000E2E10C94F70DFC0105906150704001101B
:101A6000D8F7809590958E0F9F1F0895FC016150C7
:101A7000704001900110D8F7809590958E0F9F1FB0
:101A80000895DC01FC01672F71917723E1F732970C
:101A900004C07C916D9370836291AE17BF07C8F349
:101AA00008950F931F93CF93DF938C01EB018B81EC
:101AB00081FF1BC082FF0DC02E813F818C819D81E3
:101AC0002817390764F4E881F9810193F983E883E1
:101AD00006C0E885F985802F0995892B31F48E8120
:101AE0009F8101969F838E8302C00FEF1FEFC80175
:101AF000DF91CF911F910F910895FA01AA27283005
:101B000051F1203181F1E8946F936E7F6E5F7F4FCA
:101B10008F4F9F4FAF4FB1E03ED0B4E03CD0670F46
:101B2000781F891F9A1FA11D680F791F8A1F911D99
:101B3000A11D6A0F711D811D911DA11D20D009F4E9
:101B400068943F912AE0269F11243019305D31932B
:101B5000DEF6CF010895462F4770405D4193B3E014
:101B60000FD0C9F7F6CF462F4F70405D4A3318F0BB
:101B7000495D31FD4052419302D0A9F7EACFB4E06C
:101B8000A6959795879577956795BA95C9F7009724
:101B90006105710508959B01AC010A2E06945795C5
:101BA000479537952795BA95C9F7620F731F841F1C
:101BB000951FA01D08952F923F924F925F926F92B2
:101BC0007F928F929F92AF92BF92CF92DF92EF92CD
:101BD000FF920F931F93CF93DF93CDB7DEB7CA1B4E
:101BE000DB0B0FB6F894DEBF0FBECDBF09942A8879
:101BF000398848885F846E847D848C849B84AA8421
:101C0000B984C884DF80EE80FD800C811B81AA81AD
:101C1000B981CE0FD11D0FB6F894DEBF0FBECDBF78
:081C2000ED010895F894FFCFD7
:101C2800687474703A2F2F6170692E636C6F626FDD
:101C380075732E636F6D2F25732F646174612F7513
:101C480070646174653F25733D25730073333339C0
:101C58003135007B737563636573737D00687474D5
:101C6800703A2F2F6170692E636C6F626F75732ED7
:101C7800636F6D2F25732F646174612F75706461B4
:101C880074653F25733D256400687474703A2F2F7E
:101C98006170692E636C6F626F75732E636F6D2F41
:101CA80025732F747261636B2F3F6C61743D2573CC
:101CB800266C6F6E673D25732673706565643D25D8
:101CC8007300687474703A2F2F6170692E636C6F9B
:101CD800626F75732E636F6D2F25732F6461746146
:101CE8002F72657472696576653F72266726620091
:101CF800720067006200687474703A2F2F6170690F
:101D08002E636C6F626F75732E636F6D2F25732F43
:101D1800646174612F72657472696576653F2573B5
:101D280000476F6F676C655F417373697374616EA9
:101D38006365006173757300617375733132333491
:101D4800007769666920636E746400767200706C4F
:101D580061795F736F6E67006E6578745F736F6E1D
:101D68006700707265765F736F6E6700496E635FB8
:101D7800766F6C756D650073746F705F736F6E67E7
:101D8800004465635F766F6C756D65005452592029
:101D9800436F6E74726F6C6C696E67207468696EDD
:101DA800677300223A0068747470006F74610D0ADA
:061DB8000077636F6E006E
:00000001FF
